:020000040800F2
:1000000010560020A1030008D5400008ED3B000871
:1000100085400008D9200008AD4A00080000000013
:10002000000000000000000000000000E1020008E5
:10003000E1210008000000003D030008154200080F
:10004000BB030008BB030008BB030008BB03000898
:10005000BB030008BB030008BB030008BB03000888
:10006000BB030008BB030008BB030008BB03000878
:10007000BB030008F5200008BB030008BB03000811
:1000800001210008BB030008BB030008BB030008F4
:10009000DD200008BB030008BB030008BB03000809
:1000A000BB030008E9420008BB030008BB030008CB
:1000B000BB030008BB030008BB030008BB03000828
:1000C000BB030008BB030008BB030008BB03000818
:1000D000BB030008D9480008E5480008BB03000836
:1000E000BB030008BB030008BB030008BB030008F8
:1000F000BB030008BB030008BB030008BB030008E8
:10010000BB030008BB030008BB030008BB030008D7
:10011000BD430008BB030008BB030008BB03000885
:10012000BB0300080D21000819210008BB030008CB
:10013000BB0300080000000000000000BB03000833
:10014000E9200008BB030008BB030008BB0300084C
:10015000BB0300082521000831210008754900086B
:10016000BB030008BB030008BB030008BB03000877
:10017000BB030008BB0300080000000000000000F3
:10018000BB030008BB03000800F002F800F098F879
:100190000AA090E8000C82448344AAF10107DA45E2
:1001A00001D100F08DF8AFF2090EBAE80F0013F09C
:1001B000010F18BFFB1A43F0010318474069000004
:1001C00060690000103A24BF78C878C1FAD8520795
:1001D00024BF30C830C144BF04680C6070470000C1
:1001E0000023002400250026103A28BF78C1FBD840
:1001F000520728BF30C148BF0B6070476E2900F01E
:100200007B83702900F0C584662906F0F481652996
:1002100006F0F181672906F0EE81612906F0ED8193
:1002200003681B0A28BF41F08001692900F0288378
:10023000642900F02583752900F022836F2900F0DE
:100240005384782900F09184E92900F0ED83E429B2
:1002500000F0EA83F52900F0E783EF2900F05084ED
:10026000F82900F090840368DB0928BF41F0800181
:10027000632901F0AF81732901F0B481E32901F012
:10028000BF81F32901F0C481002070471FB506F03B
:10029000A8F99DE8030000F05BFA01F013FA0400EE
:1002A0000020002105F0E6FF401C606000200021D6
:1002B00005F0CAFFE06000F01DFA1FBD10B510BDCB
:1002C00001F0D2F91146FFF7E1FF04F038FF01F029
:1002D000ABFA03B4FFF7F2FF03BC01F0DBFA000056
:1002E0002C4B19680868B0E8F04F80F30988BFF319
:1002F0006F8F4FF0000080F31188704700000000FE
:1003000008480068006880F308884FF0000080F318
:10031000148862B661B6BFF34F8FBFF36F8F00DFF3
:1003200000BF00BF08ED00E0DFF80C00016841F4F9
:1003300070010160704700BF88ED00E0EFF30980B5
:10034000BFF36F8F134B1A681EF0100F08BF20ED1C
:10035000108A20E9F04F106009B44FF0500080F38C
:100360001188BFF34F8FBFF36F8F05F075FB4FF010
:10037000000080F3118809BC19680868B0E8F04FE4
:100380001EF0100F08BFB0EC108A80F30988BFF38D
:100390006F8F704734000020EFF305807047000036
:1003A0000948804709480047FEE7FEE7FEE7FEE709
:1003B000FEE7FEE7FEE7FEE7FEE7FEE70448054945
:1003C000054A064B70470000D94200088901000821
:1003D0001050002010560020105200201052002013
:1003E00070B5064600F098F9056806F10B0020F09C
:1003F0000704B4429CBF002070BD2B466A68BAB1A6
:100400001068A04210D304F1080188423CBF506834
:10041000586007D35168101941601168091B0160C9
:1004200058601460101D70BD13465268002AE7D151
:100430002146284600F078F90028DED170BD70B55D
:100440000446051F00F068F90068002C14BF4468DA
:1004500070BD002C18BFAC423CBF20466468F8D386
:1004600001680A18AA4218BF456003D12A680546E8
:100470001144016028684119A1421CBF6C6070BD25
:100480006168696021680844286070BD53EA020C05
:1004900000F069802DE9F04B4FF00006002B1FBFE4
:1004A000B3FA83F503FA05F424FA05F65E4012BFA9
:1004B0001643B2FA82F502FA05F4C5F120051EBF13
:1004C00022FA05FC44EA0C04203556EA044C4FEAB3
:1004D000144418BF641C4FF000084FF0000990420C
:1004E00071EB030C39D3002919BFB1FA81F701FA76
:1004F00007F6B0FA80F700FA07F6C7F120071EBF2B
:1005000020FA07FC46EA0C062037B6FBF4FCA7EB02
:100510000507103F07F01F0BCBF120060CFA0BFB71
:100520002CFA06F644BFB3460026202FA4BF5E4631
:100530004FF0000B5BEA060C08BF4FF0010B19EB04
:100540000B09ABFB027C48EB0608C01B06FB02CC88
:100550000BFB03CC71EB0C01C1E70B460246414695
:100560004846BDE8F08B13B54FF000004FF0000196
:10057000AFF30080BDE81C40704700007CB51D460D
:1005800016460C00009001D02044401E074B7B44CF
:100590002A4669460190304600F0C7F905461CB16D
:1005A0000020694600F0D4F928467CBDC90300004C
:1005B000032A40F2308010F0030C00F0158011F88F
:1005C000013BBCF1020F624498BF11F801CB00F867
:1005D000013B38BF11F8013BA2F1040298BF00F8BB
:1005E00001CB38BF00F8013B11F0030300F0258078
:1005F000083AC0F0088051F8043B083A51F804CB9F
:10060000A0E80810F5E7121D5CBF51F8043B40F864
:10061000043BAFF30080D20724BF11F8013B11F86F
:1006200001CB48BF11F8012B24BF00F8013B00F8B3
:1006300001CB48BF00F8012B704710B5203AC0F03D
:100640000B80B1E81850203AA0E81850B1E81850D3
:10065000A0E81850BFF4F5AF5FEA027C24BFB1E810
:100660001850A0E8185044BF18C918C0BDE8104081
:100670005FEA827C24BF51F8043B40F8043B08BF8A
:100680007047D20728BF31F8023B48BF11F8012B51
:1006900028BF20F8023B48BF00F8012B70474FF0FD
:1006A000000200B5134694469646203922BFA0E8C2
:1006B0000C50A0E80C50B1F12001BFF4F7AF0907CE
:1006C00028BFA0E80C5048BF0CC05DF804EB8900BF
:1006D00028BF40F8042B08BF704748BF20F8022B02
:1006E00011F0804F18BF00F8012B7047704770471A
:1006F0007047000070B5064C7C44064D7D4403E015
:10070000206820448047241DAC42F9D170BD000010
:100710004C6500004C65000000487047B44F002055
:10072000704770477047704738B504460A46002046
:100730006946AFF30080002808BF38BD0246009923
:10074000204600F0F9FA012038BD012000F084BFF6
:10075000F8B5AFF30080054600200C46102000BF1E
:100760000646A819A0420DD9324669460020AFF3CB
:100770000080070008BF00F06FFF0098A04218BF7C
:100780000546C419FFF7C8FF05600746F01D20F0B5
:1007900007004619284600F00AF8B44208BFF8BD21
:1007A000A21B31463868BDE8F84000F0C5BA002108
:1007B0000160C0E9011070471020704770B5044611
:1007C00085690068C10601D5302600E02026C007F3
:1007D00007D070BDD4E9012130469047206A401C03
:1007E00020626D1EF6D570BD70B50446856900782F
:1007F000C00707D170BDD4E9012120209047206AAD
:10080000401C20626D1EF6D570BD09684A0501D5F1
:1008100040B27047C905FCD500B2704709684A0567
:1008200001D5C0B27047C905FCD580B2704770B51C
:100830000C460546012A05D02878800600D5EA69CD
:10084000002302E0012305E05B1C934202D2E05C3E
:100850000028F9D1A869E618C01AA861286A1844C6
:1008600028622846FFF7AAFF04E0D5E9012114F821
:10087000010B9047B442F8D32846FFF7B5FF70BD8F
:100880002DE9F0410646002410687529314616A569
:1008900010D0FFF7BAFF002802DA404213A507E0A4
:1008A00031688A0701D512A502E0490704D511A5D0
:1008B000012401E0FFF7B2FF00210A2206F124071C
:1008C00009E0B0FBF2FCB0FBF2F302FB1C0030309D
:1008D00078541846491C0028F3D123462A4630464E
:1008E000BDE8F04100F087BA000000002D000000D4
:1008F0002B0000002000000011680268006A530508
:1009000001D508700AE0D30501D5088006E013067A
:1009100003D5C217C1E9000200E00860012070475A
:1009200001694A1C02610878704700B58FB0CDE9B3
:1009300001310021059105497944CDE903101146A3
:10094000684600F031F90FB000BD0000E5FFFFFF81
:100950000A6802F8010B0A607047D1E900239A4245
:1009600002D2531C0B601070704700002DE9FF5F2E
:1009700015468A460446DFF8AC80F8440027D8E9DB
:1009800000103E46CDE9001010E03AF816106A4615
:1009900002A800F041FE411C07D02178890603D54A
:1009A000E269391891420DD80744761C20788006F8
:1009B00002D5E069B84205DDAE42E6DB3AF8160042
:1009C0000028E2D1A069C01BA0612046FFF7F6FE17
:1009D000D8E90010CDE90010002017E03AF818100F
:1009E0006A4602A800F018FEB0F1FF3F81460BD026
:1009F00000250DF1080B05E0D4E901211BF80500E5
:100A000090476D1C4D45F7D308F10100B042804678
:100A1000E4DB206A384420622046FFF7E5FEBDE8AB
:100A2000FF9F00002E6000002DE9F0418046D21D9E
:100A300022F007020025D2E90002F52915A614D0FC
:100A4000011E72F1000106DA0023D0EB030063EB14
:100A5000020211A608E0D8F800108B0701D50FA6F6
:100A600002E0490701D50EA601251146002408F130
:100A7000240704E000F07AF930323A55641C50EA59
:100A80000102F7D12B46324621464046BDE8F041EF
:100A900000F0B1B9000000002D0000002B000000A4
:100AA0002000000030B4002100F1240408E002F02E
:100AB0000705D208303542EA4372DB086554491C09
:100AC00052EA0305F3D10468002310A2250708D5D4
:100AD00004F020040C4304D0C46901230CA2641E5A
:100AE000C46130BC00F087B910B5044621461068D7
:100AF000FFF794FE02462046BDE810400023D1E7F0
:100B0000D21D22F00701D1E90023CBE7000000004D
:100B100030000000F0B40D460188090502D5214CD3
:100B20007C4402E01F4C7C440E34002100F124067A
:100B300008E002F00F071209E75D42EA03721B09A1
:100B40007754491C52EA0307F3D1027800231207B5
:100B500004D5702D06D009B1022311342246F0BC11
:100B600000F049B901231034F8E770B504460D468A
:100B700021461068FFF752FE024629462046BDE88E
:100B800070400023C6E7D21D22F00703D3E90023FB
:100B9000C0E70368126843F0200303600823C361C1
:100BA0000023B7E7905E00002DE9F05F8946044618
:100BB0004FF0000ADFF874B1FB44C0F820A02046D3
:100BC000E1688847002874D0252806D0D4E901219F
:100BD0009047206A401C2062F1E700265F462046CD
:100BE000E16888472028054607DB312D05D27819B2
:100BF00010F8200C08B10643F1E7B00701D526F044
:100C00000406C4F81CA00027C4F818A02A2D09D097
:100C1000284604F08DFA38B304EB8708303DC8F855
:100C2000185019E059F8041B204604EB8702916123
:100C3000E1688847012F054618D1E069002820DACD
:100C400026F020061DE0D8F8180000EB800005EB28
:100C500040003038C8F818002046E168884705464B
:100C600004F066FA0028EED1012F0AD02E2D08D10B
:100C70002046E16888477F1C0546022F46F0200683
:100C8000C4DBA069002803DA404246F00106A061F7
:100C9000F00701D026F010066C2D0BD0682D09D07E
:100CA0004C2D39D06A2D35D0742D35D07A2D33D0D6
:100CB00016E038E0E1682F4620468847B8420546EE
:100CC00009D16C2F26D04FF48060E168064320469E
:100CD0008847054604E06C2F1AD04FF48070064315
:100CE0000DB3A5F14100192802D8203546F400665D
:100CF0004A462946204626604E46FFF77FFA80B1D5
:100D000001280BD0F61D26F0070000F1080956E770
:100D10004020E4E78020D8E70020D6E706F1040968
:100D20004DE7284652E7206ABDE8F09F205E0000AC
:100D300000487047AC4F0020034640688C460028AE
:100D400018BF88423CBF03464068F8D3186818446F
:100D5000884207D00CF1030020F00700001D411A63
:100D6000521A0146081D0A60FFF769BB30B5B0F1A1
:100D70000A024FEA900E71F100034EEA817EB0EB59
:100D80000E0061EB91014FEA101E4EEA017E10EB5E
:100D90000E0041EB11114FEA102E4EEA016E10EBDE
:100DA0000E0041EB11214FEA104E4EEA014E10EBBE
:100DB0000E0041EB1141401841F100014FEAD00013
:100DC00040EA41704FEAD10110EB80054FEA8104FF
:100DD00044EA907444EB01046D1944EB0404521B83
:100DE000A3414FF0000348BF0A3200D530BD401C7C
:100DF00041F1000130BD2DE9F0470D46994692467C
:100E0000044600F124080168880604D5E06921F051
:100E10001001216000E00120A84201DD471B00E035
:100E20000027A1697A1902EB0900081AA06120784D
:100E3000C00602D42046FFF7C1FC002608E0D4E932
:100E400001211AF806009047206A401C761C206297
:100E50004E45F4DB2078C0060AD52046FFF7AEFCED
:100E600006E0D4E9012130209047206A401C20622E
:100E7000381EA7F10107F4DC07E0D4E9012118F8D6
:100E800005009047206A401C2062281EA5F101053C
:100E9000F3DC2046FFF7A8FC2078000602D50220EC
:100EA000BDE8F0870120FBE770472DE9FF4F0C46B6
:100EB0001E464FF0FF378BB0D2E90001DDF86080AD
:100EC0000A908A46C1F30A5505B93D4600210846F5
:100ED0004FF00000BAF1000F00F4400005DA00EB1B
:100EE00080004FF4400101EA50004FEA9059B9F1F7
:100EF000010F00DDB9460A9850EA4A000ED044F6C8
:100F00001050A5F2FF3545432F14B8F1000F1ED045
:100F10007542291E1EDDC9F100021CE0B8F1010F67
:100F20004FF0000001D0302103E0F24305E02154EE
:100F3000401CB042FBDB30460022002121540B99BB
:100F4000C1F80880C1E900200FB0BDE8F08FBD1BDB
:100F50006D1CDEE74A4600DA694206A800F0F6FB9F
:100F600006AB93E8070003AB83E8070050460A99F5
:100F700000F0F7FC8DE80700A0F500501F38009046
:100F80000398002D09DD42F21F014A46084403A9D7
:100F90000390684600F056FF08E0A0F500504A466E
:100FA0001F3803A90390684600F060FF8DE8070032
:100FB0000004000C03D04FF0FF30410800E0104661
:100FC000B8F1000F03D00022009215461EE0751EF6
:100FD00005D4FFF7CBFE303262556D1EF9D5B3460E
:100FE0000122084302D000227F1C04E02078302830
:100FF00001D100227F1E002A099786D01DE0112D05
:1010000007DAFFF7B3FE303262556D1C50EA010279
:10101000F5D1084302D00098C8B10EE00021681E47
:1010200005E0235C625C63542254401E491C8142EB
:10103000F7DBAB46A81B401E0990002004F80B000C
:101040000B98099AC0F80880C0E9002B7CE71126AC
:101050004FF0000859E72DE9F04F88460446D21DAD
:1010600022F0070191B0D1E90001CDE90A0103F0B6
:101070009AFE02460B98C00F01D02D2007E0206891
:10108000810701D52B2002E0202101EAC000032ABC
:10109000099001D0072A05DB03464146204600F0AF
:1010A00015FB0BE12078800601D5E06900E0062001
:1010B000B8F1650F814606D0B8F1660F18D0B8F1C7
:1010C000670F70D131E00020B9F1110F009001DB02
:1010D000112301E009F101030AAA01A90CA8FFF7F5
:1010E000E4FEDDE90C70002609F10105834647E0C6
:1010F00001204B4600904FF000470AAA01A90CA816
:10110000FFF7D3FEDDE90DB00C995D46002610B95E
:1011100009F101000D18B9EB050003D4C0F1FF3649
:1011200009F10105A5EB09002BE0B9F1010F01DA86
:101130004FF001090020B9F1110F0090484601DD80
:10114000112300E003460AAA01A90CA8FFF7ADFE8F
:10115000DDE90C704D4600268346207800070AD44E
:10116000AB4500DA5D4601A8012D04DD411911F8F7
:10117000011C302907D04F4502DA17F1040F04DAB9
:10118000012082460FE06D1EEEE7002F02DCED1B12
:101190003E4403E0781CA84200DD7D1CB81B00F132
:1011A000010A4FF000472078000703D4AA4501DB6D
:1011B0004FF0FF3A0021B7F1004F0DF143088DF8D1
:1011C000431024D002202B23002F01DA7F422D234D
:1011D0000A21021EA0F1010000DC5FB197FBF1FCC7
:1011E00097FBF1F201FB1C7C17460CF1300C08F860
:1011F00001CDEEE7A8F1010003702188090501D5B2
:10120000452100E06521A0F1010800F8011C0998C2
:101210000FA9A1EB0807FF1D00B10120411901EB47
:10122000EA70A1693844081A401EA0612078C006FF
:1012300002D42046FFF7C2FA099828B1D4E9012167
:101240009047206A401C20622078C00622D52046A4
:10125000FFF7B4FA1EE0002E04DBB34502DD01A85F
:10126000805D00E03020D4E901219047206A401CD5
:101270002062761CAAF101005FEA000A0AD100F0A0
:1012800021FAC0680168405CD4E901219047206AD6
:10129000401C2062281EA5F10105DCDC07E0D4E932
:1012A000012118F8010B9047206A401C2062381E6B
:1012B000A7F10107F3DC2046FFF796FA032011B0EF
:1012C00043E600002DE9F04F04460D46D21D22F002
:1012D000070089B0D0E9009248461746394603F026
:1012E00062FD0246F80F01D02D2307E02068810738
:1012F00001D52B2302E0202101EAC0038DF8203024
:101300000BB1012000E00020032A824601D0072A09
:1013100004DB2946204600F0D9F93DE1207880061B
:1013200001D40D2500E0E569C7F30A560D2D49DA11
:1013300000214FEA175B08464FF00000002F00F431
:10134000400007DA00EB80004FF4400100EBD07062
:1013500001EA60008115012901DD4FF0FF31002213
:101360004FEA850CBCF1180F06D31346ACF11800F8
:101370004FF08052C24003E04FF4801323FA0CF385
:101380000CF10C0CBCF1200F04D3ACF1200C09FAC9
:101390000CF001E007FA0CF000294FF0004801DDE5
:1013A00018B90FE00ED140450CD319EB02095F418B
:1013B00021B9404502D19F4329EA0209BBEB175FDF
:1013C00000D0761C2088000502D57B48784402E0D6
:1013D00079487844193808AA302302F80A30037C87
:1013E0000AF10101002E0AF1020A53546A4602DC96
:1013F0004FF0300101E04FF031014FF001088DF85E
:10140000001002D0A6F2FF3603E059EA470100D0EF
:101410006A4E002D02DC2178090704D54FF002083E
:101420002E218DF80110C44600210BE0C7F30343C1
:101430003F01C35C491C6D1E02F80830052908F104
:10144000010801DA002DF1DC00210CE000EB19733A
:10145000491C1B786D1E082902F808304FEA09194B
:1014600008F1010801DA002DF0DC2178890602D5A7
:1014700014E0A8F10108E04505DD02EB080111F8D0
:10148000011C3029F5D0B8F1000F07DD02EB08018F
:1014900011F8011C2E2901D1A8F10108002D05DD4C
:1014A0003E2102F808106D1E08F10108407C002E54
:1014B00002F8080008F1010804DA2D20764202F84B
:1014C000080002E02B2002F808000A214FF47A708D
:1014D000864208F101080BDB96FBF0F3303302F88B
:1014E000083096FBF0F308F1010800FB136601E0F9
:1014F000642E0CDB642096FBF0F3303302F80830E6
:1015000096FBF0F308F1010800FB136601E00A2ED8
:1015100006DB96FBF1F0303002F8080008F1010814
:1015200096FBF1F001FB1060303002F80800A16971
:1015300008F1010808EB050202EB0A00081AA06195
:101540002078C00602D42046FFF738F9216A08AE99
:1015500001EB0A00206204E0D4E9012116F8010B36
:101560009047BAF1010AF7D22078C00602D520468A
:10157000FFF724F96E4609E016F8010B3E280FD05C
:10158000D4E901219047206A401C2062B8F101088B
:10159000F2D22046FFF728F909B00320BDE8F08F0A
:1015A000206A2844206203E0D4E9012130209047DA
:1015B0006D1EEBD3F8E700003056000002FCFFFF81
:1015C00010B5436913B1AFF3008001E0FFF72FF9C5
:1015D000012010BD127800F124010A7000224A7027
:1015E0000122EDE711684FF0FF32E9E710B54369DA
:1015F00013B1AFF3008001E0FFF7B8F9012010BD8F
:10160000128800F1240182840022C2840122EDE7C5
:1016100011684FF0FF32E9E770B516460C460546F3
:1016200000F048F8036893F80101012806D0FF2C68
:101630000FD8185D68B101202C7070BDD3F8070178
:101640003246214603F2071303442846BDE87040A2
:1016500018474FF0FF3070BD10B500F0F3F8BDE84B
:10166000104000F0EAB870477546FFF761FBAE46E0
:1016700005006946534620F00700854618B020B59E
:10168000FEF79CFEBDE820404FF000064FF000073B
:101690004FF000084FF0000B21F00701AC46ACE81A
:1016A000C009ACE8C009ACE8C009ACE8C0098D4687
:1016B0007047000010B500F005F8001D10BD00BF18
:1016C000B54B000000487047CC4F00202DE9F04199
:1016D0001F46044603260168072A01F4006004DB64
:1016E00008B116A505E016A503E008B115A500E0B0
:1016F00015A521F010002060A069C01EA0610FB1E7
:10170000401EA0612046FFF759F84FB1D4E90121EE
:1017100038469047206A401C2062C01C206206E0C8
:10172000206AFAE7D4E9012115F8010B9047761EEB
:10173000F8D22046FFF758F8BDE8F0814E414E0040
:101740006E616E00494E4600696E66002DE9F047F5
:10175000814616468AB0334878440DC88DE80D009E
:1017600030487844801C03AC0DC884E80D0041F675
:101770009B300844372190FBF1F290FBF1F5A5F185
:10178000800501FB12041B3C02D56442012000E0ED
:101790000020DFF890A080460027FA44AAF1BE0A94
:1017A0000DE0E00709D03246684607EB47010AEB37
:1017B000810100F05BFB8DE8070064107F1C002CAA
:1017C000EFD1184F7F44AC3F18E0E80714D007EB87
:1017D00004100DF1180A90E80E008AE80E00C068A7
:1017E000F04201D198190890324606A903A800F0EA
:1017F0003DFB03AB83E807006D10641C002DE4D1B2
:1018000032466946B8F1000F03A802D000F01AFB77
:1018100001E000F02BFBC9E90001C9F808200AB07B
:10182000BDE8F0873453000010B50446AFF30080E4
:101830002046BDE81040FEF74CBD002801D000F066
:1018400029B8704710B5012805D0002103A000F089
:1018500027F8012010BD09A1F8E7000053494752BD
:10186000544D454D3A204F7574206F662068656170
:1018700070206D656D6F7279000000003A20486538
:101880006170206D656D6F727920636F7272757013
:101890007465640001491820ABBEFEE72600020013
:1018A00070B505460C460A2000E06D1C00F052F8A9
:1018B00035B128780028F8D102E0641C00F04AF81D
:1018C00014B120780028F8D1BDE870400A2000F05B
:1018D00041B800004FF0013C50F8042B51F8043B94
:1018E0009A4221D1A2EB0C03934313EACC1317D1F4
:1018F00050F8042B51F8043B9A4215D1A2EB0C038B
:10190000934313EACC130BD150F8042B51F8043B4A
:101910009A4209D1A2EB0C03934313EACC13DBD018
:101920004FF00000704700BFD01A01BAB1FA81F140
:1019300001F0180122FA01F0CB40C1F12001DBB225
:10194000C0B2C01A2CFA01F3D11A914311EAC311A3
:10195000E6D1704708B569468DF800000320ABBE9C
:1019600008BD5FEA400C08BF91F0000F4FEA8C23DE
:101970004FEAC12243EA51514FEA1C5018BF00F50B
:10198000F0404FEA300018BF41F000415FEA6C5C64
:1019900000F02980BCF1FF3F08BF40F08040704755
:1019A000130C06BF12044FF0100C4FF0000C130E76
:1019B00004BF12020CF1080C130F04BF12010CF14A
:1019C000040C930F04BF92000CF1020CD30F04BF60
:1019D00052000CF1010C11464FF00002A0F11F0063
:1019E000A0EB0C00704711F0004F08BF704731F0BA
:1019F00000413FF4D5AF0B0C06BF09044FF0100CAB
:101A00004FF0000C0B0E04BF09020CF1080C0B0F79
:101A100004BF09010CF1040C8B0F04BF89000CF109
:101A2000020CCB0F04BF49000CF1010CCCF12003D8
:101A3000A0EB0C0022FA03F302FA0CF241EA0301D4
:101A400000F10100704720F07F4C80EA030023F092
:101A50007F47ACEB070303F57C5300F0004003F134
:101A6000FF032DE980494FEA154B09B44FEA1443AF
:101A700025EA0B4E24EA03480FF2042606EB13274F
:101A800049083E785FEA320203FB0667C7F50007A4
:101A900007FB06F64FEA54374FEAD64606F1020630
:101AA00007FB066CCCF1005C4FEA1C472CEA074CA4
:101AB00007FB06F40CFB06F504EB15464FEA9616F9
:101AC00034BF00204FF000404FEAD13706FB07FC3F
:101AD0004FEA1C4C0CFB0BF7D21B03FB0CF761EB22
:101AE00007010CFB0EF7B0EB074072EB17420CFB43
:101AF00008F734BFA2EB0742B2EB074261EB174194
:101B00004FEA0C444FEA910706FB07FC4FEA1C4CD6
:101B10000CFB0BF7B0EBC74072EB573203FB0CF733
:101B200034BFA2EBC742B2EBC74261EB57310CFBAB
:101B30000EF7B0EBC70072EB57720CFB08F734BF1F
:101B4000A2EBC702B2EBC70261EB5771039F4FEAEA
:101B5000816141EA921104EBCC044FEAD1374FEA9C
:101B6000826206FB07FC42EA90124FEA80604FEA6D
:101B70001C4C0CFB0BF7D21B03FB0CF761EB0701B2
:101B80000CFB0EF7B0EB074072EB17420CFB08F7AB
:101B900034BFA2EB0742B2EB074261EB17414FEAB9
:101BA0008C554FEA910704EB9C2406FB07FC4FEA97
:101BB0001C4C0CFB0BF7B0EBC74072EB573203FB2E
:101BC0000CF734BFA2EBC742B2EBC74261EB57310F
:101BD0000CFB0EF7B0EBC70072EB57720CFB08F76B
:101BE00034BFA2EBC702B2EBC70261EB577115EB32
:101BF0004C254FEA816141EA92114FEA82624FEA35
:101C0000D13742EA901206FB07FC44F100044FEA88
:101C100080604FEA1C4C0CFB0BF7D21B03FB0CF74C
:101C200061EB07010CFB0EF7B0EB074072EB1742BC
:101C30000CFB08F734BFA2EB0742B2EB074261EBA3
:101C4000174115EB1C154FEA813141EA92414FEAE9
:101C5000823242EA90424FEA80304FEA0C7644F1F9
:101C6000000448EA03434EEA0B484FF0000EB2EB83
:101C7000080C71EB030724BF624639464EEB0E0E8B
:101C80004FF0000B0018524149414BEB0B0BB2EBEC
:101C9000080C71EB03077BF1000B24BF6246394649
:101CA0004EEB0E0E4FF0000B0018524149414BEB2A
:101CB0000B0BB2EB080C71EB03077BF1000B24BF9D
:101CC000624639464EEB0E0E51EA020718BF46F047
:101CD000010616EB0E7655F1000254F1000103D512
:101CE000BDE88901BDE80088BDE88901BDE800487C
:101CF000B619524141EB0101A3F101037047808005
:101D00007F7E7D7C7B7A7978777676757473727155
:101D100071706F6E6E6D6C6C6B6A6A69686867660D
:101D200066656464636362616160605F5F5E5E5D9F
:101D30005D5C5C5B5B5A5A59595858575756565513
:101D400055555454535352525251515050504F4F75
:101D50004F4E4E4D4D4D4C4C4C4B4B4B4A4A4A49C5
:101D60004949484848474747474646464545454408
:101D70004444444343434342424242414141002B95
:101D800026D4770021D01CB54FEA370703B44FF0B3
:101D900010004FF010014FF000000FBCBDE81040E4
:101DA0000BF1010BBBF1010F08BF5FEA170722BF60
:101DB00012F1010211F101014FF0004143F1000362
:101DC00000F0004043EA00007047F9D35708DAE713
:101DD00046EA064613F1400F4FEA16461FDD13F19F
:101DE000200FDFBF16430A46002120335B42C8D0D4
:101DF000C3F1200746EA064602FA07F74FEA1646FD
:101E000046EA0706C3F1200722FA03F201FA07F7B0
:101E100021FA03F14FF0000342EA0702B1E746EA74
:101E2000020646EA06464FEA164646EA0106BCBFE7
:101E300046EA0646360C4FF000034FF000024FF022
:101E400000019EE72DE9C048934630B491E8380080
:101E500007C831EA400C48BF34EA430C03D5FFF70A
:101E6000F2FDFFF78CFFF0BCBDE800882DE9C0480B
:101E7000934630B491E8380007C810F0804F08BF8F
:101E800013F0804F03D100F005F8FFF778FFF0BCA6
:101E9000BDE8008820F07F4780EA030023F07F4CF4
:101EA00007EB0C03A3F57C5300F00040A3F1FE0305
:101EB00092F0000F00F0B38095F0000F00F07780F3
:101EC0002DE901494FEA11404FEA144621EA004842
:101ED00000FB06FC24EA064708FB06F607FB08F8A9
:101EE00000FB07F718EB06484CEB164C4FEA124B79
:101EF00018EB07484FEA15464CEB174022EA0B4E09
:101F00000BFB06FC25EA06470EFB06F607FB0EFE5A
:101F10000BFB07F71EEB064E4CEB164C4FF0000682
:101F20001EEB074E4CEB174B18EB0B0840F1000073
:101F300018EB0E0B58EB000840F100008F1A4FF021
:101F400000013CBFC943661B14BFB5EB040C002164
:101F50003CBFC943F61B4FEA17444EEA8E0E27EAF0
:101F600004454FEA1C4704FB07622CEA074C05FBBB
:101F700007F70CFB05F604FB0CFC16EB074642EBDF
:101F8000174216EB0C4642EB1C421BEB060658EBC5
:101F90000202414146EA9E0601D5BDE80189B61913
:101FA000524141EB0101A3F10103BDE801894FEA70
:101FB00014454FEA114724EA054621EA074C05FB80
:101FC00007F406FB07F70CFB06F105FB0CFC11EB15
:101FD000074144EB17444FEA124711EB0C4144EB25
:101FE0001C4422EA074C05FB07F206FB07F70CFB33
:101FF00006F605FB0CFC16EB074642EB174216EB08
:102000000C4642EB1C456A1854F1000148BF70476A
:10201000B619524141EB0101A3F10103704795F05C
:10202000000F37D04FEA11424FEA144721EA024627
:1020300024EA074C02FB07F106FB07F70CFB06F44A
:1020400002FB0CFC14EB074441EB17414FEA154728
:1020500014EB0C4441EB1C4125EA074C02FB07F54D
:1020600006FB07F70CFB06F602FB0CFC16EB07461B
:1020700045EB174516EB0C4645EB1C42121951F186
:10208000000148BF7047B619524141EB0101A3F16D
:10209000010370474FEA14454FEA114724EA054609
:1020A00021EA074C05FB07F106FB07F70CFB06F2DC
:1020B0004FF0000605FB0CFC12EB074241EB174109
:1020C00012EB0C4251EB1C4148BF7047921841EB98
:1020D0000101A3F101037047FEE70000014800F091
:1020E0002EB9000084030020014800F028B9000048
:1020F000AC030020014800F0C3BA0000F406002041
:10210000014800F0BDBA000014080020014800F0AA
:10211000B7BA000074080020014800F0B1BA00000E
:1021200054070020014800F0ABBA0000D40800209A
:10213000014800F0A5BA0000B40700200168182388
:10214000CAB2103AB2FBF3F2054B6FF30901032A4E
:102150009B5CC36500D9091D816508467047000076
:102160008C69000810B5014600208B698A6A4FF01F
:10217000C07453B1B3F5005F15D072B1012A0CD011
:10218000022A0AD0032A09D104E01AB1012A06D092
:10219000022A03D1C96AC90100D5012010BDC96A4C
:1021A000A142FAD010BD002AF7D0012AF2D0022AAB
:1021B000F3D0032AF3D010BD30B50468256825F4A8
:1021C00080252560046863608368402B036803D022
:1021D00099600068C26030BD9A600068C16030BD1F
:1021E000704772B6FEE7000010B558B1084C491EA2
:1021F0000BD310F8013B5340DBB234F8133083EAC1
:102200001222F4E74FF6FF7010BD104610BD00001B
:102210008C67000810B5054C04E000BF10F8013BC6
:102220005340E25C491EF9D2104610BD8C6600088E
:1022300090F82020012A07D0022A05D0416A41F4F3
:102240008021416201207047006842690A4342616F
:1022500000207047704730B590F82040012C05D021
:10226000022C03D0416A41F480215DE0046800291A
:1022700055D02469A40754D04FF4D874056804EBF2
:1022800001142D5915F00405956005682D594ED09F
:10229000ED08556005682C5904F00204D4604FF431
:1022A000DA74056804EB01142D5905F00F0515616A
:1022B00005682D59C5F30725956105682C59240C2F
:1022C00054614FF4DC72046802EB0112A4581C70D4
:1022D0000468A458240A5C700468A458240C9C70F8
:1022E0000468A258120EDA704FF4DE72046802EB32
:1022F0000112A4581C710468A458240A5C71046873
:10230000A458240C9C710468A258120EDA7100685B
:1023100081B1016941F020010161002030BDE46814
:10232000A8E7416A41F400114162012030BD6D0D02
:102330001560AFE7C16841F02001C160EDE72DE90C
:10234000F05F0546006800244669D0F8049087686D
:10235000D0F80CB0D0F810A0D0F81880F10748D011
:10236000F90714D001218160B80703D5284600F091
:1023700025F90CE0780702D54FF4006407E0380730
:1023800002D54FF4805402E0284600F016F9F80513
:1023900016D529684FF480708860B80503D52846A3
:1023A00000F00EF90CE0780502D544F4005407E083
:1023B000380502D544F4804402E0284600F0FFF8D6
:1023C000F80316D529684FF480308860B80303D528
:1023D000284600F0F7F80CE0780302D544F40044F6
:1023E00007E0380302D544F4803402E0284600F0C8
:1023F000E8F8300707D55FEACB6004D529681020DC
:1024000044F40074C86070074FF0080707D55FEA0E
:102410000B7004D52868C760284600F08EF8B00716
:1024200006D52868C068800702D0284600F086F8E4
:10243000700607D55FEACA6004D52968102044F405
:1024400080640861B00607D55FEA0A7004D5286881
:102450000761284600F0AEF8F00606D52868006946
:10246000800702D0284600F0A6F8B00308D55FEA3E
:10247000C96005D5296810204860284600F09CF8FE
:10248000F00307D55FEA097004D52868476028463D
:1024900000F099F8300446D55FEA497040D5F00560
:1024A00004D55FEAC87001D044F00104B00504D53A
:1024B0005FEA887001D544F00204700504D55FEA34
:1024C000487001D544F00404300529D518F0700F88
:1024D00026D008F07000402815D006DC102809D05E
:1024E00020280AD0302816D10AE050280ED06028C3
:1024F00011D10EE044F008040DE044F010040AE0AD
:1025000044F0200407E044F0400404E044F0800478
:1025100001E044F480742868816921F070018161D0
:10252000296804204860002C05D0686A204368624E
:102530002846FFF78FFEBDE8F09F704770B51A4937
:102540000546194C00680968903C884211D104F195
:102550001C03224600212846FFF77DFEF0B91349EF
:10256000206801EBC000A0F58450E1698167216A11
:1025700013E00D4B0021503BA3F11C022846FFF74E
:102580006AFE58B908480A496C38006801EBC00077
:10259000A0F58450216C8167616CC1672846BDE855
:1025A00070400221FFF744BE840300208B470020C7
:1025B000CB4700207047704770477047704770479F
:1025C00070477047704770472DE9F0410446876DAA
:1025D00000F0C0FA064694F835000025022806D01F
:1025E0008020606584F834500120BDE8F0812068C7
:1025F000016821F0160101602068416921F0800125
:102600004161206C08B9A06C20B12068016821F0FC
:10261000080101602068016821F0010101600CE0FF
:1026200000F098FA801B052807D920206065032058
:1026300084F8350084F83450D7E720680068C00774
:10264000EED194F85C103F208840B860012084F8F7
:10265000350084F834500020C7E790F8351002297F
:1026600003D08021416501207047052180F8351095
:102670000068016821F0010101600020704700003E
:102680002DE9F84304464FF00009CDF80090634867
:102690004FF41651A56D0068B0FBF1F72E6894F861
:1026A0005C10082000FA01F131420FD021680A685D
:1026B00052070BD50A6822F004020A6094F85C10F5
:1026C0008840A860606D40F00100606594F85C107F
:1026D0004FF0010808FA01F0304208D0216849693A
:1026E000090604D5A860606D40F00200606594F8AA
:1026F0005C1004208840304208D0216809688907AE
:1027000004D5A860606D40F00400606594F85C102A
:1027100010208840304218D021680968090714D574
:10272000A86020680168490304D50068000308D543
:10273000A16C07E00168C90503D4016821F0080114
:102740000160216C09B12046884794F85C10202074
:102750008840304231D021680968C9062DD5A8606B
:1027600094F8350005282068016806D0490347D54C
:10277000006800031DD4616C1CE021F016010160AB
:102780002068416921F080014161206C08B9A06C8A
:1027900020B12068016821F00801016094F85C1004
:1027A0003F208840A86084F8358084F83490216DFB
:1027B0001FE0E16B09B120468847606D00282BD0EF
:1027C000606DC00714D0052084F8350020680168CA
:1027D00021F0010101600098401C0090B84203D82C
:1027E00020680068C007F6D184F8358084F83490FA
:1027F000E16C002910D001B02046BDE8F043084745
:102800000168C905D5D4016821F01001016084F880
:10281000358084F83490CCE7BDE8F88330000020A0
:102820002DE9F041044600F095F906465CB102201E
:1028300084F83500002584F834502068016821F0C0
:10284000010101600DE00120BDE8F08100F082F996
:10285000801B052805D920206065032084F83500F9
:10286000F2E720680068C007F0D1226811682048AC
:102870000140D4E901031843D4E903363343184334
:1028800063691843A3691843E3691843236A18432B
:102890000843616A042903D1D4E90B13194308439F
:1028A000106020684069666A20F0070130460E43D8
:1028B000012704280CD1A06A0643E06A40B12046F3
:1028C000FFF750FC20B14020606584F83570BAE70E
:1028D000206846612046FFF731FC94F85C203F21D8
:1028E00091408160656584F835700020ACE7000098
:1028F0003F8010F02DE9F0410446866D90F83400D9
:10290000002501280DD0012084F8340094F835709A
:102910000020012F07D084F8340002252846BDE8A6
:10292000F0810220FBE7022784F8357060652046BD
:10293000FFF742FC94F85C103F208840B0602068AC
:10294000016841F016010160206C20B12068016827
:1029500041F0080101602068016841F00101016057
:10296000DCE700002DE9F84FDFF8BCA100220125CB
:1029700003264FF00F090AF1040BAAF1040E00BF61
:102980000B6805FA02F42340A34270D10F7907F0D7
:102990000307012F01D0022F16D187684FEA4208A2
:1029A00006FA08FC27EA0C07D1F80CC00CFA08FC60
:1029B0004CEA070CC0F808C04768A7430C79C4F379
:1029C000001494403C4344600C79E443A4070AD0CB
:1029D000C4684FEA420C06FA0CF7BC438F6807FA4A
:1029E0000CF72743C7600C7904F00304022C12D1C2
:1029F000D40800EB840CDCF820405707FF0E09FADE
:102A000007F824EA0804D1F8108008FA07F848EA21
:102A10000408CCF8208004684FEA420C06FA0CF750
:102A2000BC430F7907F0030707FA0CF72743076049
:102A30004C6814F4403F70D03C4C276847F4804702
:102A40002760246822F0030704F480440094384C83
:102A500007EB040CDCF8084897074FEA177809FAE7
:102A600008F7BC43334FB84202D1002724E054E0BA
:102A7000314FB84201D101271EE0304FB84201D199
:102A8000022719E02E4FB84201D1032714E02D4F41
:102A9000B84201D104270FE02B4FB84201D10527DE
:102AA0000AE02A4FB84201D1062705E0284FB84274
:102AB00001D1072700E0082707FA08F72743CCF8D9
:102AC0000878DAF800405746D1F804C09C435FEA22
:102AD000CC2C00D51C433C60DBF800405F46D1F8AD
:102AE00004C09C435FEA8C2C00D51C433C60DEF89C
:102AF00000407746D1F804C09C435FEA8C3C00D587
:102B00001C433C60084F083F3C68D1F804C09C431C
:102B10005FEACC3C00D51C433C60521C102AFFF4F9
:102B20002FAFBDE8F88F0000083C01404438024058
:102B30000030014000000240000402400008024052
:102B4000000C024000100240001402400018024035
:102B5000001C0240014880687047000024000020EB
:102B60000248816802781144816070472400002087
:102B70000B4810B5016841F400710160016841F42F
:102B800080610160016841F480710160032000F000
:102B900099F80F2000F006F800F04AF8002010BD68
:102BA000003C024030B505461C4887B0002401684F
:102BB00041F001010160006806A900F001000090E9
:102BC00001A800F02BF900F059F915494000B0FBBD
:102BD000F1F11548134A491E026040F2E732C0E99C
:102BE0000324C0E90114846100F042FB040012D107
:102BF0000D4800F06BFB04000DD1192000F034F8F3
:102C0000102D07D200222946192000F03BF8074872
:102C1000056000E0012407B0204630BD4438024082
:102C200040420F000000014034090020280000202D
:102C30000C4882B0016841F480410160006800F4F2
:102C4000804000900748001F016841F080510160FA
:102C50000068002200F0805000900F21901E02B00A
:102C600000F010B844380240002809DB00F01F02D1
:102C7000012191404009800000F1E020C0F80011DE
:102C800070470000F0B40E4B1B680C46C3F30223E0
:102C9000C3F10705042D00D90425191D072901D208
:102CA000002300E0DB1E012606FA05F1491E214043
:102CB00099409E40761E16403143F0BC02F08BB81E
:102CC0000CED00E0064900F0070208684FF6FF032C
:102CD000184040EA0220034A104308607047000091
:102CE0000CED00E00000FA052DE9F0470E46050066
:102CF00065D0DFF81481D8F80000F7B200F00700C3
:102D0000B04207D288F80070D8F8000000F0070041
:102D1000B04254D128683D4C810712D5400703D5F5
:102D2000206840F4E05020602878000703D5206830
:102D300040F4604020602068A96820F0F00008435B
:102D400020602878C0072DD03049686808390128EC
:102D500012D0022813D0032811D00968890700294E
:102D60002DDA216821F0030101432160FFF7F2FE13
:102D7000814641F2883A0EE009688903EFE7096865
:102D80008901ECE7FFF7E6FEA0EB0901514502D906
:102D90000320BDE8F0872068696800F00C00B0EB04
:102DA000810FEFD1D8F80010404601F00701B14281
:102DB00007D90770006800F00700B04201D0012079
:102DC000E7E72878400705D52068E96820F4E05057
:102DD000084320602878000706D52068296920F478
:102DE000604040EAC100206000F058F82168084ABD
:102DF000C1F30311515CC8400649086006480068E9
:102E0000FFF7D0FE0020C4E7003C02400838024033
:102E10009469000830000020280000200F22026082
:102E20000C4A136803F003034360136803F0F003D4
:102E30008360136803F4E053C36012684FF4E053F7
:102E400003EAD20202610448006800F0070008604B
:102E50007047000008380240003C02400448054921
:102E600000680968044AC1F38221515CC840704778
:102E70003000002008380240A469000804480549D1
:102E800000680968044AC1F34231515CC840704788
:102E90003000002008380240A4690008154810B529
:102EA000006810F00C02144813D01449042A0FD003
:102EB000082A0ED10F4C241F2268236802F03F021B
:102EC0005B0207D52068C0F38810A0FB010106E073
:102ED000084610BD2168C1F38811A1FB0001002341
:102EE000FDF7D4FA2168C1F30141491C4900B0FB48
:102EF000F1F010BD083802400024F40040787D0154
:102F00002DE9F84F04006ED02078DFF84C93C0070D
:102F1000A9F104054AD009F104000168C1F3810157
:102F2000012908D00068C0F3810002280AD1D9F82D
:102F30000000400206D52868800337D56068002865
:102F4000E1D033E06068B0F5803F10D0B0F5A02F3D
:102F5000286810D020F480302860286820F4802071
:102F600028606068A8B1FFF7F5FD06460DE0286807
:102F700040F48030F4E740F480202860F7E700BF99
:102F8000FFF7E8FD801B642873D828688003F7D515
:102F90000CE0FFF7DFFD064605E000BFFFF7DAFDB6
:102FA000801B6428F0D828688003F7D42078DFF8E5
:102FB000AC8280074FF0000A3ED5A748001D01688B
:102FC00011F00C0F08D00068C0F3810002280BD16B
:102FD000D9F80000400207D42868800716D5E068B9
:102FE000012800D112E033E1E068B8B10120C8F84F
:102FF0000000FFF7AFFD064605E000BFFFF7AAFDA2
:10300000801B0228C0D828688007F7D52868216966
:1030100020F0F80040EAC10028600DE0C8F800A0E8
:10302000FFF798FD064604E0FFF794FD801B022899
:103030001FD828688007F7D42078000722D5864F4C
:1030400087486169703771B101210160FFF782FD26
:10305000064604E0FFF77EFD801B022809D8386889
:103060008007F7D50EE0C0F800A0FFF773FD064615
:1030700005E082E0FFF76EFD801B02287DD83868EE
:103080008007F7D42078400768D5DFF8CCB1002757
:103090000BF13C0BDBF80000C0000BD4DBF8001098
:1030A00041F08051CBF80010DBF80000012700F060
:1030B000805000906B4E3068C00510D4306840F4EA
:1030C00080703060FFF746FD009005E0FFF742FD9D
:1030D0000099401A022850D83068C005F6D55E4ED7
:1030E000A0686C3601280FD00528306810D020F079
:1030F00001003060306820F004003060A068B8B192
:10310000FFF728FD00900FE0306840F00100F4E781
:1031100040F004003060F7E7FFF71CFD0099411A0A
:1031200041F28830814266D830688007F4D50EE0DD
:10313000FFF710FD009007E0FFF70CFD0099411A22
:1031400041F28830814256D830688007F4D42FB1DC
:10315000DBF8001021F08051CBF80010A069C8B353
:103160003D49091D0968C1F3810102294AD002289D
:10317000504607D0C8F8600000E03CE0FFF7EAFCEA
:1031800004463BE04746C8F86000FFF7E3FC06460C
:1031900005E000BFFFF7DEFC801B02282BD8286863
:1031A0008001F7D4D4E907010843A16A2E4A4908EF
:1031B00002EB0141626A41EA8211084394F82C1043
:1031C00040EA0161C9F8001001203866FFF7C2FC2F
:1031D000044606E03EE000BFFFF7BCFC001B0228EF
:1031E00009D828688001F7D534E000BFFFF7B2FCAA
:1031F000001B022802D90320BDE8F88F286880014F
:10320000F4D427E00128F7D0D9F80000E26900F4EF
:10321000800191421CD1226A00F03F01914217D1F6
:1032200047F6C071626A0140B1EB821F10D1A26AF9
:103230004FF0FF3300F4403103EB5202B1EB024F89
:1032400006D194F82C1000F07060B0EB016F01D043
:103250000120D1E70020CFE70438024000004742B8
:10326000800E4742007000400000FFFF704770472B
:1032700010B5040003D094F83D0010B107E0012020
:1032800010BD002084F83C00204600F01EF802200B
:1032900084F83D00211D206801F02CF8012084F8FD
:1032A000460084F83E0084F83F0084F8400084F82B
:1032B000410084F8420084F8430084F8440084F814
:1032C000450084F83D00002010BD704790F83D1087
:1032D000012901D001207047022180F83D100168CA
:1032E000CA6842F00102CA6000681149884214D0DD
:1032F000B0F1804F11D00F4988420ED00E4988425C
:103300000BD00E49884208D00D49884205D00D499E
:10331000884202D00C49884204D1816801F007013B
:10332000062903D0016841F00101016000207047C7
:10333000000001400004004000080040000C004074
:10334000000401400040014000180040704770B583
:103350000446006801694FF00005C943890715D488
:10336000C168C943890711D4E91E01610120207792
:10337000206880698007204602D0FFF7E7FF04E05D
:1033800000F098F8204600F096F82577206801694B
:10339000C943490717D4C168C943490713D46FF01B
:1033A00004010161022020772068806910F4407FC9
:1033B000204602D0FFF7CAFF04E000F07BF8204669
:1033C00000F079F8257720680169C943090716D408
:1033D000C168C943090712D46FF0080101610420D4
:1033E00020772068C0698007204602D0FFF7AEFF33
:1033F00004E000F05FF8204600F05DF825772068D3
:103400000169C943C90617D4C168C943C90613D4A1
:103410006FF010010161082020772068C06910F466
:10342000407F204602D0FFF791FF04E000F042F811
:10343000204600F040F8257720680169C943C90794
:1034400008D1C168C943C90704D1891E016120465A
:1034500000F032F820680169C943090609D4C1683F
:10346000C943090605D46FF0800101612046FFF7CA
:10347000FDFE20680169C943490609D4C168C943F2
:10348000490605D46FF040010161204600F01EF8A6
:1034900020680169C94389060BD4C168C9438906FC
:1034A00007D46FF0200101612046BDE87040FFF7AE
:1034B000DEBE70BD7047704700680349884201D185
:1034C000FFF74EBB70470000000001407047704797
:1034D00070470000F8B5016804460868CA684B697F
:1034E00010F00F0F4FF000055AD003F0010602F460
:1034F0009077374365D0C10705D0D10503D5216C3E
:1035000041F001012164410705D5D90703D0216CA1
:1035100041F002012164810705D5D90703D0216C50
:1035200041F004012164010707D502F02001314375
:1035300003D0216C41F008012164216C00293BD0AB
:10354000800604D5900602D5204601F059F820687F
:103550004069216CC0F3801001F00801014320464E
:103560002BD001F018F820684069400621D520686A
:10357000143050E8001F21F0400140E80012002AFA
:10358000F5D1A06BA8B16C490165A06BFFF765F898
:10359000002811D0A06B016D01B0BDE8F0400847D4
:1035A00083060ED593060CD52046BDE8F84001F001
:1035B00027B82046FFF78CFFF8BDFFF789FF256489
:1035C000F8BD266B2023012E79D1C60677D5D60605
:1035D00075D50868486800904869400640D5A16BD9
:1035E000086840680004000CEAD0A28D8242E7D946
:1035F000E085C869B0F5807F2DD020680C3050E898
:10360000001F21F4807140E80012002AF5D12068E3
:10361000143050E8001F21F0010140E80012002A98
:10362000F5D12068143050E8001F21F0400140E837
:103630000012002AF5D184F83E30256320680C3052
:1036400050E8001F21F0100140E80012002AF5D1D7
:10365000A06BFEF7B9FFA08DE18D401A81B229E081
:10366000A08DE18D401A81B2E08D0028A8D00029FC
:10367000A6D020680C3050E8002F22F4907240E869
:103680000026002EF5D12068143050E8002F22F0DB
:10369000010240E80026002EF5D184F83E30256373
:1036A00020680C3050E8002F22F0100240E8002380
:1036B000002BF5D12046FFF70AFFF8BDFFE705060E
:1036C0002BD5150629D594F83D002128F5D1A06801
:1036D000B0F5805F01D12069B0B1206A411C216240
:1036E000216800784860E08C401E0004000CE084F3
:1036F000E3D12068C16821F08001C1602068C16801
:1037000041F04001C160D8E7206A0088C0F308009A
:103710004860206A801C2062E5E74006CDD550064F
:10372000CBD5CA68204622F04002CA6084F83D30FA
:1037300000F05BFAC1E70000A144000870B5040086
:1037400004D094F83D00002510B106E0012070BDC2
:1037500084F83C50204600F023F8242084F83D00F3
:103760002068C16821F40051C160204600F0A8FF24
:103770002068016921F4904101612068416921F0CC
:103780002A0141612068C16841F40051C16025648B
:10379000202084F83D0084F83E00002070BD000029
:1037A0002DE9F04F87B0054614216846FCF777FFF6
:1037B000CB48DFF828831038D5F800C0C84B032168
:1037C0000222DFF820A30615871500244FF0080B0E
:1037D0004FF00069C4453BD1D3F800C04CF4002C35
:1037E000C3F800C01B6803F400230593036843F08B
:1037F00001030360006800F0010005908DE81600E9
:10380000CDE9031B69465046FFF7ACF8DFF8DC82D0
:10381000B5494046C8F80010C0E90194C0E9034624
:10382000C8F81440C0E90647C8F82040C8F824404A
:10383000FEF7F6FF08B1FEF7D4FCC5F83880002289
:1038400005213420C8F83850FFF71CFA3420BEE0B8
:10385000DFF89C82DFF888E2C4450EF1040E74D1D3
:10386000DEF800C0A3464CF0100CCEF800C0DEF825
:1038700000309B4803F0100310380593036843F0B1
:1038800001030360006800F0010005904FF4C06080
:103890008DE815000720CDE9031069465046FFF773
:1038A00061F8DFF84882934908F160084046C8F89B
:1038B0000010C0E90194C0E90346C8F81440C8F8F4
:1038C0001840C8F81C40C8F82040C8F82440FEF74B
:1038D000A7FF08B1FEF785FC844C8648C5F8388000
:1038E000C0347830C8F83850C4E900094020A060DE
:1038F000C4E903B6C4F814B0C4E906B7C4F820B0EC
:103900002046C4F824B0FEF78BFF08B1FEF769FC2F
:103910006C63002205212520A563FFF7B3F925205C
:10392000FFF7A2F96E481038016841F48001016088
:10393000006800F480000590D8F80000016841F0AC
:10394000010101602068C4E0FFE7DFF8AC81C445F5
:1039500042D1D3F800C04CF4003CC3F800C01B684F
:1039600003F400330593036843F001030360006828
:1039700000F0010005900C208DE815000720CDE92E
:10398000031069465046FEF7EDFF5749DFF86C819A
:1039900048314046C8F80010C0E90194C0E9034628
:1039A000C8F81440C0E90647C8F82040C8F82440C9
:1039B000FEF736FF08B1FEF714FCC5F83880002288
:1039C00005212620C8F83850FFF75CF92620FFF7BC
:1039D0004BF907B0BDE8F08F494B9C45F9D1DEF8B3
:1039E00000C0A2464CF0200CCEF800C0DEF800303B
:1039F000814603F020030593036843F0040303604A
:103A00000068CDE9024100F004000590C020CDE936
:103A10000002CDF810B069463A48FEF7A3FFDFF880
:103A2000DC80344908F16008183940464FF0206BBB
:103A3000C8F80010C0E901B4C0E90346C8F8144052
:103A4000C0E90647C8F82040C8F82440FEF7E8FE61
:103A500008B1FEF7C6FBC5F838804446C8F83850B0
:103A6000DFF89880234908F1C00840466031C0E97A
:103A7000001B4021C8F80810C0E903A6C8F814A02C
:103A8000C0E906A7C8F820A0C8F824A0FEF7C8FE21
:103A900008B1FEF7A6FBC5F8348046460022052192
:103AA0004720C8F83850FFF7EDF84720FFF7DCF85B
:103AB000D9F8001041F48001C9F80010D9F80000CD
:103AC00000F4800005902068016841F00101016068
:103AD0003068016841F0010101607AE7004C004064
:103AE000403802400000024040600240F4060020DE
:103AF00000100140406402400044004014080020CF
:103B0000001401400008024090F83E30202B0ED1F6
:103B100059B152B190F83C30012B08D0012380F804
:103B20003C300023036300F051BE012070470220A7
:103B300070477047704700002DE9F843044690F83D
:103B40003D001F4616460D4620284CD1C5B1BEB1DA
:103B500094F83C00012846D0012084F83C004FF046
:103B60000008C4F84080212084F83D00FEF7F2FFF1
:103B7000A6848146E684A068B0F5805F03D004E0A7
:103B80000120BDE8F883206928B12E465FF00005CA
:103B900084F83C800EE00026FAE78021204600F001
:103BA0005FFEA0B9AEB116F8010B21684860E08C49
:103BB000401EE084E08C4B464FF000020097002846
:103BC000EBD14FF04001204600F04AFE30B1032017
:103BD000D7E735F8020BC0F30800E6E7202084F8A9
:103BE0003D000020CDE70220CBE77047FEE710B58F
:103BF000435C002203E0845C1B1BDBB2521C8A4244
:103C0000F9D30BB1002010BD012010BD70B50446E2
:103C10002DED048B007855287DD1607855287AD118
:103C2000A0789FED818A814D012875D0022874D03B
:103C3000032870D110212046FFF7D9FF00287ED03D
:103C400060792179000200B2084300EE100AF1EE1B
:103C5000008AB8EEC00A20EE080A20EE280A10EE0C
:103C6000100A02F04DFC9FED729B53EC192B02F0F1
:103C700049FB02F015FBE861E079A179000200B28E
:103C8000084300EE100AB8EEC00A20EE080A20EE43
:103C9000280A10EE100A02F033FC53EC192B02F044
:103CA00031FB02F0FDFA2862607A217A000200B24C
:103CB000084300EE100AB8EEC00A20EE080A20EE13
:103CC000280A10EE100A02F01BFC53EC192B02F02C
:103CD00019FB02F0E5FA6862E07AA17A000200B20C
:103CE000084300EE100AB8EEC00A60EE080A9FED25
:103CF000520A60EE800AC5ED0A0A607B217B000251
:103D000000B2084300EE900AF8EEE00A60EE880A7E
:103D100060EE800A02E012E014E049E0C5ED0B0A13
:103D2000E07BA17B000200B2084300EE900AF8EEAF
:103D3000E00A60EE880A20EE800A85ED0C0ABDECF0
:103D4000048B70BD0A212046FFF751FF0028F6D0F2
:103D500060792179000200B2084300EE100AB8EE43
:103D6000C00A60EE080A9FED350A60EE800AC5EDD4
:103D7000020AE079A179000200B2084300EE900A3D
:103D8000F8EEE00A60EE880A60EE800AC5ED010AEE
:103D9000607A217A000200B2084300EE900AF8EE41
:103DA000E00A60EE880A20EE800A85ED000AC6E788
:103DB0000C212046FFF71BFF0028C0D06079217935
:103DC000000200B2084300EE100AB8EEC00A20EE6E
:103DD000080A85ED030AE079A179000200B20843E0
:103DE00000EE100AB8EEC00A20EE080A85ED040ABB
:103DF000607A217A000200B2084300EE100AB8EEA1
:103E0000C00A20EE080A85ED050AE07AA17A0002D0
:103E100000B2084300EE100AB8EEC00A20EE080A0D
:103E200085ED060A8BE70000000000388846002078
:103E30009A999999999923400000FA4400003443D3
:103E4000214808B5016841F480010160016801F46E
:103E500080010091016841F40011016000680022B6
:103E600000F40010009005210D20FEF70BFF0D203F
:103E7000FEF7FAFE002205211020FEF703FF1020B6
:103E8000FEF7F2FE002205213920FEF7FBFE392065
:103E9000FEF7EAFE002205213A20FEF7F3FE3A2063
:103EA000FEF7E2FE002205214520FEF7EBFE45204D
:103EB000FEF7DAFE002205214620FEF7E3FEBDE80C
:103EC00008404620FEF7D0BE3038024010B5A4B0FE
:103ED00000221221012001F067FE274C206008B962
:103EE000FEF77FF900220421032001F05DFE6060EF
:103EF00008B9FEF776F900220421012001F054FEF2
:103F0000A06008B9FEF76DF91C221C496846FCF751
:103F100094FB0021684601F035F91849A0611C2284
:103F20001C3107A8FCF789FB002107A801F02AF93A
:103F30001249E0601C2238310EA8FCF77EFB0021FC
:103F40000EA801F01FF90D4920611C22543115A85B
:103F5000FCF773FB002115A801F014F90749206153
:103F60001C2270311CA8FCF768FB00211CA801F082
:103F700009F9606124B010BD00000020006600084F
:103F8000114808B5016841F080010160016801F045
:103F900080010091016841F001010160016801F0B8
:103FA00001010091016841F002010160016801F026
:103FB00002010091016841F004010160006800F015
:103FC0000400009008BD00003038024010B5144CC9
:103FD00012480C2120604FF4E13060600020A060A6
:103FE000E060C4E90401A061E0612046FFF7A6FBA0
:103FF00008B1FEF7F6F82068C16841F01001C16011
:1040000007496422C8390648FFF77EFD0548006865
:10401000016841F00101016010BD0000004C00404A
:10402000E4050020F406002010B5134C11480C21C3
:1040300020604FF4E13060600020A060E060C4E9DF
:104040000401A061E0612046FFF778FB08B1FEF7AC
:10405000C8F82068C16841F01001C16064220749B6
:104060000548FFF751FD06480068016841F001016D
:10407000016010BD004400406C060020B804002020
:1040800014080020FEE70000104EDFF8448006F51B
:10409000707700240D49C4EB041506EBC5002039E8
:1040A00000F0CAFD094907EBC500103900F0C4FD56
:1040B000641CE4B2082CEDD3D8F800100120491C90
:1040C000C8F8001001F052F8E3E700002C48002087
:1040D0009C000020FEE7000070B501784278C378AC
:1040E000114382781A4311430279114342791143F3
:1040F0004DD00188C1F30A022549A2F580620A80E9
:1041000043788478DB0843EA4413C3F30A05A5F532
:1041100080654D808378C4789B0943EA84030479E1
:10412000083243EA8423C3F30A04A4F580648C8034
:10413000037946795B0843EAC613C3F30A03A3F580
:1041400080630026CB80102A00D80E800835102D01
:1041500000D84E800834102C00D88E800833102BE5
:1041600000D8CE80427992090A724279C2F30112D4
:104170004A72C2888A810289CA8142890A82027B84
:104180008A74427BCA74C27B0A75807B487570BD95
:104190006C460020012000F0E9FFFBE708B50A4D5E
:1041A00014226946686801F0C5FD0128F8D107A10D
:1041B0000420009C00F04EFC601CFFF727FD204609
:1041C000FCF73DF9ECE70000000000204E494841B3
:1041D0004F00000008B5064C14226946606801F0E3
:1041E000A9FD0128F8D10098FCF729F9F4E70000AF
:1041F00000000020064C88B014226946206801F0B7
:1042000099FD0128F8D16846FFF766FFF4E7000042
:104210000000002010B5502080F31188BFF34F8FAD
:10422000BFF36F8F01F0C2FE18B104494FF0805008
:104230000860002080F3118810BD000004ED00E04C
:1042400030B593B030216846FCF729FA14210CA848
:10425000FCF725FA1E480025016841F080510160F5
:10426000006800F0805011901A48016841F48041C4
:1042700001600068022400F4804011900120009049
:10428000000401908001CDE90640192008904FF408
:10429000A870CDE9090404200B906846FEF730FEB3
:1042A00008B172B6FEE70CA90F2081E831004FF487
:1042B000A0500F904FF48050109005210CA8FEF7ED
:1042C00013FD002801D072B6FEE713B030BD000028
:1042D00040380240007000400248016841F470011B
:1042E0000160704788ED00E00148FFF730B800003A
:1042F00034090020F0B50268254C264D264E274F84
:10430000274B4FF0804CA04209D0604507D0A8420F
:1043100005D0B04203D0B84201D0984204D122F077
:10432000700E4A6842EA0E02A0421BD0604519D0C6
:10433000A84217D0B04215D0B84213D0984211D03D
:10434000184DA8420ED0184DA8420BD0174DA842C8
:1043500008D0174DA84205D0164DA84202D0164DE0
:10436000A84203D122F44075CA682A434D6922F05D
:1043700080022A4302608A68C2620A688262A0429E
:1043800001D0984201D10969016301214161F0BD69
:10439000000001400004004000080040000C004004
:1043A0000004014000400140004401400048014039
:1043B00000180040001C0040002000402DE9FF4193
:1043C00000200190254800680168C90640D50168B1
:1043D0004068234E00903068016821F001010160BF
:1043E000306841681F4FC1F1640139604168C1F113
:1043F00064010A291AD34168C1F16401122915D850
:104400001948C478A01D641DFBF7EAFF054600F8B3
:10441000014B22461449FCF7CBF8144803950023BE
:1044200001AA03A9006801F025FC07E04368406881
:104430000FA1C0F16402042000F00CFB15A10420C0
:104440003A6800F007FB3068016841F00101016043
:104450000248FFF73FF8BDE8FF810000E4050020B7
:10446000F4060020200000201C050020040000208D
:10447000492072656365697665206572726F722086
:104480006C656E2025642C204E44545220697320A4
:1044900025642100726563656976653A25640000CC
:1044A00010B5806B0021C185C184FFF711F810BDE4
:1044B00070B5846B2068406994F83D10C0F3C0105B
:1044C0000025212904D118B1E584204600F08AF89E
:1044D0002068406994F83E10C0F38010222904D16E
:1044E00018B1E585204600F056F8206C40F0100029
:1044F00020642046FEF7ECFF70BD10B50146806BCE
:1045000009680968C9052FD40021C18501680C31EB
:1045100051E8002F22F4807241E80023002BF5D1EE
:104520000168143151E8002F22F0010241E8002314
:10453000002BF5D10168143151E8002F22F0400220
:1045400041E80023002BF5D1202180F83E10016BBB
:10455000012909D101680C3151E8002F22F0100225
:1045600041E80023002BF5D1016B012902D0FFF7B0
:10457000E0FA10BD818DFEF7AAFF10BD10B5806B6B
:10458000016B012902D0FFF7D5FA10BD818D4908D2
:10459000FEF79DFF10BD01680C3151E8002F22F499
:1045A000907241E80023002BF5D10168143151E8E5
:1045B000002F22F0010241E80023002BF5D1016B0E
:1045C000012909D101680C3151E8002F22F01002B5
:1045D00041E80023002BF5D1202180F83E10002176
:1045E0000163704701680C3151E8002F22F0C002CE
:1045F00041E80023002BF5D1202180F83D107047C1
:1046000008B590F83E10222901D0022008BD82682A
:104610004FF480539A4201D1016921B1816A9A42D3
:104620001BD04AB10AE00268816A5268C2F30802EC
:104630000A80816A891C08E0026972B102685268C6
:1046400002F07F020A70816A491C8162C18D491E95
:104650000904090CC18503D019E002685268F1E72A
:104660000168CA6822F02002CA600168CA6822F4A0
:104670008072CA6001684A6922F001024A61202101
:1046800080F83E10016B012903D0FFF752FA002099
:1046900008BD0021016301680C3151E8002F22F0B0
:1046A000100241E80023002BF5D101680A68D20608
:1046B00002D50A6849680091818DFEF708FFE6E798
:1046C00070B5044600680169E26821F44051114365
:1046D00001612169A068E2690843616911430843E7
:1046E0002168CA6849F20C639A430243CA60206891
:1046F0004169A26921F44071114341613149206847
:10470000884202D03049884202D1FEF7B7FB01E06F
:10471000FEF7A4FBE2690023192164253226B2F5D5
:10472000004F626828D0A0FB0101930F9200FBF7B5
:10473000ADFE0146B0FBF5F06FF01802504301EBFF
:10474000800006EB0010B0FBF5F000F0F002B1FBCA
:10475000F5F002EB0012B1FBF5F06FF018035843CF
:1047600001EB800006EB0010B0FBF5F000F00F004D
:1047700021681044886070BDA0FB010192185B4164
:10478000FBF784FE0146B0FBF5F00201B1FBF5F04A
:104790006FF01803584301EB800006EBC000B0FB3C
:1047A000F5F000F0F80002EB4002B1FBF5F05843E1
:1047B00001EB800006EBC000B0FBF5F000F0070055
:1047C000D6E70000001001400014014038B58162B6
:1047D00082850025134604460564222084F83E00A5
:1047E000A26B1C48D063A26B1B481064A26B1B48D1
:1047F000D064A06B0A4605652168A06B091DFEF711
:1048000079F8206801684068009084F83C5020697D
:1048100048B120680C3050E8001F41F4807140E836
:104820000012002AF5D12068143050E8001F41F032
:10483000010140E80012002AF5D12068143050E848
:10484000001F41F0400140E80012002AF5D100208D
:1048500038BD0000FB4400087D450008B144000855
:104860002DE9F041984617460E460446069D27E07E
:10487000681C25D02DB1FEF76DF9A0EB0800A84209
:104880001ED920680C3050E8001F21F4D07140E898
:104890000012002AF5D12068143050E8001F21F0E2
:1048A000010140E80012002AF5D1202084F83D00E3
:1048B00084F83E00002084F83C000320BDE8F0812D
:1048C0002068006836EA000004D00020B842CFD04B
:1048D0000020F3E70120F9E70148FEF7FBBD0000E7
:1048E000280600201CB500200090154800680168CB
:1048F000C90619D501684068124C0190206801680A
:1049000021F00101016020684168522910D04368FC
:1049100040680DA1C0F16402022000F09BF82068FD
:10492000016841F0010101600548FEF7D3FD1CBD9F
:104930000F4800236A460D49006801F09BF9EEE735
:104940006C060020140800204920726563656976B2
:1049500065206572726F72206C656E2025642C2054
:104960004E4454522069732025642100B80400206D
:10497000000000202DE9FF41002002902648006839
:104980000168C90642D501684068244D0090286836
:10499000016821F0010101600521214800F0A6F81D
:1049A000012801D01FA10BE01D4EB6F8010044BA4A
:1049B00009342146304600F07BF8012804D01EA1BE
:1049C000062000F047F812E0E01FFBF709FDE41FA6
:1049D0000746E2B200F8012B711DFBF7E9FD1B4809
:1049E0000397002302AA03A9006801F043F928688D
:1049F000016841F001010160029838B114494FF09B
:104A000080500860BFF34F8FBFF36F8F0248FEF7EF
:104A100061FDBDE8FF810000B006002074080020A1
:104A2000800500204352433820636865636B20662D
:104A300061696C656421000043524331362063682C
:104A400065636B206661696C656421000800002065
:104A500004ED00E00FB4812110B5044604AB124808
:104A6000039AFBF78BFD82B2022C0AD0012C0DD0E9
:104A7000042C14D0062C0FD10B49012301F53770FB
:104A800008E00949012301F5267003E006490123E6
:104A900001F51570FFF750F810BC5DF814FB0249E2
:104AA000012301F50470F5E7D4030020FEE70000C0
:104AB00030B50C46050014D0022C12D90A48A11EAC
:104AC00002882846FDF790FB2919C2B211F8023C72
:104AD0009A4206D111F8011CB1EB102F01D101202F
:104AE00030BD002030BD00001C00002030B50C4659
:104AF00005000CD0022C0AD9FF22611EFDF78AFBAB
:104B0000291911F8011C814201D1012030BD00207A
:104B100030BD000090ED061ADFED130A61EE201A99
:104B2000C0ED051A90ED071A21EE201ADFED0F0AED
:104B300080ED061A60EE200AC0ED070A30EEC10AC9
:104B400090ED002A20EE020A90ED012A02EE200AE2
:104B5000B0EE002A41EE420A90ED021A70EEA10A70
:104B600001EE200A704700001F856B3F713D8A3FB0
:104B700008B580ED070A90ED051AF0EE400A00F145
:104B8000140231EE000A111F80ED050A90ED041A9F
:104B9000B4EEC01AF1EE10FA00D31146B1EE410A9C
:104BA0008DED000A91ED000A9DED001A6A46B4EE03
:104BB000C10AF1EE10FA00D21146B7EE002AD1ED8B
:104BC000001AC0ED051A90ED031A90ED020A32EEBC
:104BD000412A20EE020A90ED062A30EEC22A20EE8B
:104BE000020A90ED082A01EE020A80ED080A90ED13
:104BF000001A90ED012AC0ED060A20EE811A01EE9E
:104C0000821A31EE000A08BD80EC040A70470000E9
:104C10009FED070A80ED000A80ED010A80ED020A8F
:104C200080ED030A9FED030A80ED040A704700003F
:104C30000000000000007A4470B50D46C278324989
:104C4000044601EBC20011F83210437803EB012156
:104C50000AB26281C178837801EB032109B2A18095
:104C60004379067903EB0623E3808079207360782B
:104C700004F1300610B1012810D037E06069401A05
:104C800000EE100A3046B8EEC00AFFF743FFD4ED3D
:104C9000040AF8EEE00A30EE200A1DE0A069801A4E
:104CA00000EE100A04F15400B8EEC00AFFF760FFEE
:104CB000BDEEC00A204610EE101A6161A28D00F010
:104CC00041F86061B4F90410401A00EE100A304651
:104CD000B8EEC00AFFF74CFFBDEEC00A204610EE4A
:104CE000101A2161E28D00F02DF820616089208189
:104CF000208AE178000A05F81100E178207C05EBB4
:104D00004101487070BD00008B47002040F6B8326A
:104D1000826243F2C82242F2283371B1012909D0DC
:104D2000022906D147F23051C185C8218185502121
:104D300081627047C28583857047C28583854FF441
:104D40007A71F5E707B581B003AADDE9023102A85F
:104D50008B4200DB1046494200910268009B694685
:104D60009A4200DA0846006804B000BD70B500F849
:104D7000011B0D4600F8012B00F82E3BFFF748FF02
:104D80002430FFF745FF543804468178491EC1702E
:104D90002946FFF7BBFF242204A904F13000FBF7EA
:104DA0004CFC204670BD03B401984100009850EAC5
:104DB000C12018BF04204A0D18BF40F0010040F286
:104DC000FF72B2EB515F08BF40F00200012808BF3C
:104DD000052002B070470907090E002804DB00F126
:104DE000E02080F80014704700F00F0000F1E02090
:104DF00080F8141D704700002DE9F04F2DED048B55
:104E0000ADF5197D9FEDC18AF0EE481ADFEDC08A3D
:104E1000B0EE681A9FEDBF9AB2EE040A09A8F0EE50
:104E2000490AFFF7F1FE014624226846FBF705FC1C
:104E300040F20124234600220121B748FFF796FFE4
:104E4000F0EE481AB0EE681AF0EE490AB2EE040A23
:104E500012A8FFF7D9FE014624226846FBF7EDFBB6
:104E6000AD48651C2B46002201217830FFF77EFFFC
:104E7000F0EE481AB0EE681AF0EE490AB2EE040AF3
:104E80001BA8FFF7C1FE014624226846FBF7D5FBAD
:104E9000A148A61C334600220121F030FFF766FF2F
:104EA000F0EE481AB0EE681AF0EE490AB2EE040AC3
:104EB00024A8FFF7A9FE014624226846FBF7BDFBA4
:104EC000E71C3B46002201219448FFF74FFFF0EE1C
:104ED000481AB0EE681AF0EE490AB2EE040A2DA89C
:104EE000FFF792FE014624226846FBF7A6FB8B489B
:104EF00040F205284346002201217830FFF736FFB3
:104F0000F0EE481AB0EE681AF0EE490AB2EE040A62
:104F100036A8FFF779FE014624226846FBF78DFB91
:104F20007E4840F206294B4600220121F030FFF76F
:104F30001DFFF0EE481AB0EE681AF0EE490AB2EE24
:104F4000040A3FA8FFF760FE014624226846FBF7EB
:104F500074FB40F2072A5346002201217048FFF7F4
:104F600005FFF0EE481AB0EE681AF0EE490AB2EE0C
:104F7000040A48A8FFF748FE014624226846FBF7CA
:104F80005CFB67484FF4027B5B46002201217830CE
:104F9000FFF7ECFEF0EE481AB0EE681AF0EE490AA0
:104FA000B2EE040A51A8FFF72FFE014624226846FC
:104FB000FBF743FB5A48234600220121F030FFF75C
:104FC000D5FEF0EE481AB0EE681AF0EE490AB2EEDD
:104FD000040A5AA8FFF718FE014624226846FBF788
:104FE0002CFB2B46002201214E48FFF7BFFEF0EEBE
:104FF000481AB0EE681AF0EE490AB2EE040A63A845
:10500000FFF702FE014624226846FBF716FB4548DF
:105010003346002201217830FFF7A8FEF0EE481A4F
:10502000B0EE681AF0EE490AB2EE040A6CA8FFF777
:10503000EBFD014624226846FBF7FFFA39483B4660
:1050400000220121F030FFF791FEF0EE481AB0EE99
:10505000681AF0EE490AB2EE040A75A8FFF7D4FD0B
:10506000014624226846FBF7E8FA43460022012164
:105070002D48FFF77BFEF0EE481AB0EE681AF0EE0E
:10508000490AB2EE040A7EA8FFF7BEFD01462422BB
:105090006846FBF7D2FA24484B46002201217830BB
:1050A000FFF764FEF0EE481AB0EE681AF0EE490A17
:1050B000B2EE040A87A8FFF7A7FD0146242268463E
:1050C000FBF7BBFA1848534600220121F030FFF7E6
:1050D0004DFEF0EE481AB0EE681AF0EE490AB2EE54
:1050E000040A90A8FFF790FD014624226846FBF7CA
:1050F000A4FA5B46002201210C48FFF737FE0DF5AC
:10510000197DBDEC048BBDE8F08F000000000000AD
:10511000FDF9B639DD24863D2C4800209449002055
:10512000FC4A0020644C0020CC4D0020344F00206D
:1051300030380A2801D20120704700207047FDF75F
:1051400017FDFFF77DF8FEF71BFFFEF779FEFEF770
:105150006BFFFEF73BFFFEF7B9FE00F00EF8FEE72F
:1051600001460020842900D0C81C704710B500B942
:10517000012000F0E7FB002010BD10B500F02EFC70
:10518000002010BD7FB50D4604464169B0F9080006
:1051900081B1A16971B1FFF7E3FFD4E905128DE890
:1051A0000700D4E900102B46226900F0C6FE0390E8
:1051B00004B070BDFFF7D4FF03A9CDE90001208A38
:1051C0002B4682B2D4E9001000F08AFE012801D0FB
:1051D0000020EDE70398EBE72DE9F041184C0F466E
:1051E0000546E6682068001D00F0BAFA38B9206864
:1051F00090F82C1001208840216981432161681CAE
:1052000007D137B12168BDE8F0410E48091D00F013
:10521000EBBA20683544B5424560216805D2A06BE1
:10522000BDE8F041091D00F0C7BA606B091D00F030
:10523000C3FAA06A854200D2A562BDE8F0810000F1
:1052400034000020580A00202DE9F041054600F006
:10525000D7FA2E4CA068401CA06020682C4F10B1DB
:10526000606940B32DE02560A068012829D100269F
:1052700006EB860007EB800000F090FA761C072E04
:10528000F6D323488C3000F089FA2148A03000F092
:1052900085FA1F48B43000F081FA1D48C83000F08C
:1052A0007DFA1B48DC3000F079FA19488C306063D5
:1052B0001430A06305E02068E96AC06A884200D81B
:1052C0002560606A401C6062E96A012022698840AA
:1052D0001043206101EB810007EB8000291D00F0E5
:1052E00083FA00F0ADFA606900280CD02068E96A02
:1052F000C06A884207D207494FF080500860BFF368
:105300004F8FBFF36F8FBDE8F081000034000020A5
:105310007C09002004ED00E030B4026C0B46002A4A
:105320000BD0C1681144C1608468A14201D30168F7
:10533000C16030BC1846FBF73BB930BC70472DE963
:10534000F041856B174604460026026C82B1C7B156
:10535000E068FBF72DF9E168206C091AE16022682A
:10536000914202D2A168081AE060022F16D017E01D
:105370002068A8B9A06800F07FFE06460020A06063
:105380000EE06068FBF714F9216C60680844606007
:10539000A168884204D32068606001E005B16D1EF9
:1053A0006D1CA5633046BDE8F08110B5044690F849
:1053B000510058B101280CD002280FD0502080F3A2
:1053C0001188BFF34F8FBFF36F8FFEE7206B00F0A4
:1053D0004BFA2046BDE8104000F046BA10BD000070
:1053E00010484FF47051420706D0C01D0D4920F0FF
:1053F0000700411AC1F570510B4A00230144C2E96C
:1054000000030839183A21F0070111604B600B6066
:105410000B1AC0E9001393604FF0004053605061D5
:10542000704700006C0A002088000020144E154CC4
:10543000A6F1C8074FF08058DFF84C9012E000BF8B
:1054400000F0DEF9F068C568281D00F089F9A06851
:10545000401EA0606068401E606000F0F1F92846C0
:10546000FFF7A3FF60680028EAD138680128F9D95E
:10547000C9F80080BFF34F8FBFF36F8FF2E70000D2
:10548000440A00203400002004ED00E003460098A8
:1054900029B10260C0E90F31012100F0A7BB006013
:1054A000F8E72DE9F0479A46DDE9098481466FF077
:1054B0000303206B03EB82021044089E20F00707D1
:1054C000780707D0502080F31188BFF34F8FBFF3C8
:1054D0006F8FFEE7002561B1002023180A5C83F876
:1054E00034200A5C12B1401C1028F6D384F84350D3
:1054F00001E084F83450072E00D30626E662C4E9A2
:105500001165201D00F055F904F1180000F051F963
:105510002461C6F107006462A061E56484F850501C
:1055200052464946384600F005F92060B8F1000FB0
:1055300001D0C8F80040BDE8F087000030B511493F
:1055400000E011460A688242FBD34B685C18844233
:1055500003D1406818444860084643681C189442C8
:1055600009D1084C183C2468A24209D052681A4458
:1055700042600A6812680260814200D0086030BD53
:105580000460F9E78800002010B5044600F038F9FF
:10559000A06B28B15FF0000400F052F9204610BD66
:1055A0000124F9E70648416B096829B1416BC968D4
:1055B000C9684968816270474FF0FF31FAE700001F
:1055C0003400002008484068401C4FF0500080F331
:1055D000118804D0BFF34F8FBFF36F8FFEE7BFF387
:1055E0004F8FBFF36F8FFEE7900000202DE9F04151
:1055F000044600F005F994F9455004F1240609E049
:10560000606A48B1304600F083FD08B100F0C8F987
:105610006D1E6DB2002DF3DC4FF0FF3684F845604F
:1056200000F00EF900F0ECF894F9445004F1100782
:1056300009E0206948B1384600F06AFD08B100F081
:10564000AFF96D1E6DB2002DF3DC84F84460BDE847
:10565000F04100F0F5B800002DE9F04105460027C3
:1056600000F0F2F9324E306808B9FFF7B9FE706900
:1056700005424ED1C5B3083568070ED005F00700C6
:10568000C0F108000544680707D0502080F3118856
:10569000BFF34F8FBFF36F8FFEE72DB37068854266
:1056A00037D82348183001460C6801E020460C46E4
:1056B0006168A94202D221680029F7D131688C4281
:1056C00027D007682168016060680837411B1029EE
:1056D0000FD96019420708D0502080F31188BFF31A
:1056E0004F8FBFF36F8FFEE713E041606560FFF7F8
:1056F00025FF61687068401A7060B268904200D2FD
:10570000B060706901430020C4E90001F068401CEA
:10571000F06000F037FD780707D0502080F3118843
:10572000BFF34F8FBFF36F8FFEE73846BDE8F081C0
:105730007000002010B5031F4FF080741C601B1F09
:1057400021F001011960191F044B0B6014390A6024
:10575000091F6FF0020244380A6010BDC5550008E9
:10576000D0E9013201699A60D0E901235A604A68A0
:10577000824201D182684A60002202610868401EAC
:105780000860086870470000034B036003F1540091
:105790000860802010607047A000002000F1080120
:1057A0004FF0FF32C0E90112C160016100210160C8
:1057B000704700210161704730B50B685A1C02D058
:1057C00000F1080202E0026904E0224654682568FC
:1057D0009D42FAD953684B6099608A6051600861B4
:1057E0000168491C016030BD42684A6093688B6063
:1057F00093685960916008610168491C01607047B5
:10580000502080F31188BFF34F8FBFF36F8F0A4989
:105810004868401C486001280CD10848006810F016
:10582000FF0F07D0502080F31188BFF34F8FBFF3D5
:105830006F8FFEE7704700009000002004ED00E04D
:105840000849486828B1401E486001D180F311889A
:105850007047502080F31188BFF34F8FBFF36F8FD5
:10586000FEE700009000002070B500282AD0164DF9
:10587000A0F1080460686969084207D1502080F3EC
:105880001188BFF34F8FBFF36F8FFEE722683AB1E5
:10589000502080F31188BFF34F8FBFF36F8FFEE767
:1058A0008843606000F0D0F8606869680844686008
:1058B0002046FFF743FE2869401C2861BDE8704080
:1058C00000F060BC70BD0000700000204FF0E020D0
:1058D00000210161816105494FF47A720968B1FBC9
:1058E000F2F1491E4161072101617047300000203B
:1058F00010B5FAF751FD114910280ED300F1E02040
:1059000090F8F0030A78904207D2502080F3118873
:10591000BFF34F8FBFF36F8FFEE7094800688968B8
:1059200000F4E060884207D9502080F31188BFF36B
:105930004F8FBFF36F8FFEE710BD00009000002077
:105940000CED00E010B5020014D00F48006B38B128
:10595000502080F31188BFF34F8FBFF36F8FFEE7A6
:1059600000F072F800211046FFF736FC00F00AFC48
:10597000002807D105494FF080500860BFF34F8FD2
:10598000BFF36F8F10BD00003400002004ED00E075
:1059900002490A6A0260C968416070473400002009
:1059A00001490120C86170473400002010B50C4641
:1059B00050B1094909681831FFF7FEFE2046BDE8DD
:1059C00010400121FFF708BC502080F31188BFF37D
:1059D0004F8FBFF36F8FFEE73400002010B586B005
:1059E0000024039405AA04A903A80494FFF7CCFE9D
:1059F000DDE903010094CDE9011000230EA1104858
:105A0000059A00F09AFA0F490028C86211D0502078
:105A100080F31188BFF34F8FBFF36F8F4FF0FF30CC
:105A2000886201204861CC6006B0BDE8104000F0FB
:105A300041B806B010BD000049444C4500000000CC
:105A40002D540008340000200248016B491C0163FA
:105A500070470000340000201448016B11B101218F
:105A6000C16170470021C1610169B1FA81F1C1F1E1
:105A70001F0101EB81020E4951F822306BB101EB9D
:105A8000820101F108034A6852684A609A4201D1D2
:105A900052684A60D16801607047502080F31188D5
:105AA000BFF34F8FBFF36F8FFEE70000340000207D
:105AB0007C0900201CB537480168374A914207D15C
:105AC000502080F31188BFF34F8FBFF36F8FFEE735
:105AD00000683149491E884207D1502080F311885F
